:0A0006003F065B4F666D7D077F6FBC
:0E018000010802010904020A0000020C00003E
:10013300EF1FAA0670011E4A6013E4FCFDC3ED9491
:0D01430078EC940050EA0DBD00010C80F036
:01015000228C
:03001B000200AA36
:1000AA00C0E0C0D075D000C007050BE50B70020593
:1000BA000AB4A020E50AB40F1BAF091509EF700EA8
:1000CA00750909AF081508EF7004F508F509750AEE
:0B00DA0000750B00D007D0D0D0E03242
:0300130002016B7C
:10016B00750802750904C28E750A00750B00750CB3
:05017B0000750D0032CB
:03000300020111E6
:10011100C0E0E50D20E004D28E8002C28E050DE51F
:100121000D7002050C640A450C7004F50CF50DD038
:02013100E032BA
:1000E50053A0FCE50890000693F590D2A07F027E10
:1000F5000012013353A0FCE50993F590D2A17F02CC
:0C0105007E00120133E4F59053A0FC22B0
:10015100758920758D06758B06D2AFD2AAD2A8D229
:0A0161008AD288D2AB1200E580FBC1
:0300000002001EDD
:0C001E00787FE4F6D8FD75810D020065C6
:10002A00020151E493A3F8E493A34003F68001F29A
:10003A0008DFF48029E493A3F85407240CC8C333D7
:10004A00C4540F4420C8834004F456800146F6DFA6
:10005A00E4800B0102040810204080900180E47EB5
:10006A00019360BCA3FF543F30E509541FFEE4939B
:10007A00A360010ECF54C025E060A840B8E493A362
:10008A00FAE493A3F8E493A3C8C582C8CAC583CA8D
:10009A00F0A3C8C582C8CAC583CADFE9DEE780BE45
:01018E000070
:00000001FF
