:0400DC000208000016
:03001B000200AA36
:1000AA00C0E0C0D00509E50970020508B4901EE554
:1000BA0008B40119850B993099FDC299E50BC31350
:1000CA00F50B7003750B80750800750900D0D0D048
:0200DA00E03212
:10000300E4F598758920758D06758B06D2AFD2AB52
:07001300D28E750B8080FE08
:0300000002001EDD
:0C001E00787FE4F6D8FD75810B020065C8
:10002A00020003E493A3F8E493A34003F68001F2E9
:10003A0008DFF48029E493A3F85407240CC8C333D7
:10004A00C4540F4420C8834004F456800146F6DFA6
:10005A00E4800B01020408102040809000DCE47E5A
:10006A00019360BCA3FF543F30E509541FFEE4939B
:10007A00A360010ECF54C025E060A840B8E493A362
:10008A00FAE493A3F8E493A3C8C582C8CAC583CA8D
:10009A00F0A3C8C582C8CAC583CADFE9DEE780BE45
:0100E000001F
:00000001FF
