:100A130028302D355629565F4D45413A2020200078
:100A230028352D35305629565F4D45413A20200053
:100A33002835302D3530305629565F4D45413A0023
:100A43004F5645522052414E4745210028302D35FF
:100A5300306D4129415F4D45413A20200028353012
:100A63002D3530306D4129415F4D45413A002830E5
:100A73002E352D354129415F4D45413A202000282F
:100A8300302D35303029525F4D45413A202020002A
:100A930028302E352D354B29525F4D45413A2020C4
:100AA3000028352D35304B29525F4D45413A2020E2
:100AB30020002057656C636F6D6520546F2055735C
:100AC3006520002020546869732050726F64756339
:100AD3007420200076616C75653D20303030302EF7
:100AE3003030560076616C75653D2030302E3030E5
:100AF3003020410076616C75653D2030302E3030FA
:100B030030204B00202020202020202020202020C7
:050B130020202020005D
:100C8400015A00015B00102976616C75653D2030C6
:100C94003030302E30305600103976616C75653D39
:100CA4002030302E303030204100104976616C7590
:0F0CB400653D2030302E303030204B000159008C
:100D3200AE071FEE6017E4FCFDC3ED94FAEC9400DD
:0D0D420050EE000000000DBD00010C80EC23
:010D4F002281
:100D9B007580FFC2A0D2A1D2A2AF80C2A2EF3392C4
:030DAB0000A200A3
:010DAE002222
:100DAF00AE07120D9B40FBD2A0C2A18E80D2A2C271
:020DBF00A2226E
:100DC100AE07120D9B40FBC2A0C2A18E80D2A2C26F
:020DD100A2225C
:100D6B00C2A0C2A27F38120DC17F0C120DC17F062B
:080D7B00120DC17F01020DC140
:060CC4007BFFE4FD7F014F
:060CCA008B088A09890A6B
:100CD000EDBF01052480FC800324C0FCAF04120D8D
:100CE000C1AB08AA09A90A12027B6013050AE50A2A
:0F0CF0007002050914F912027BFF120DAF80E2AA
:010CFF0022D2
:040006007559012205
:1004CB008F08E55A60030205AE78297C00FD7BFF9F
:1004DB007A0A79D71204AE8524288523278522260C
:1004EB00852125AF08E4FCFDFEAB28AA27A926A889
:1004FB00251202A6E47BF47A01F9F81202A6E412A3
:10050B0001BCE4FBFA797F784312011F1201FA8FC9
:10051B00288E278D268C25E47B107A27F9F8120379
:10052B0031E47B0AFAF9F8120331EB2430F531E4AC
:10053B007BE87A03F9F8AF28AE27AD26AC2512037A
:10054B0031E47B0AFAF9F8120331EB2430F532E48B
:10055B007B64FAF9F8AF28AE27AD26AC2512033130
:10056B00E47B0AFAF9F8120331EB2430F533E47B20
:10057B000AFAF9F8AF28AE27AD26AC25120331E401
:10058B007B0AFAF9F8120331EB2430F535E47B0AD8
:10059B00FAF9F8AF28AE27AD26AC25120331EB24C0
:1005AB0030F536E55A6401600302069678397C0013
:1005BB00FD7BFF7A0A79E71204AE85242885232771
:1005CB00852226852125E47F507EC3FDFCAB28AA1E
:1005DB0027A926A8251202A6E41201BCC004C00557
:1005EB00C006C007AF087E007C007DFF120294ACF2
:1005FB0006AD07E41201C1A804A905AA06AB07D0F2
:10060B0007D006D005D00412011F1201FA8F288ED5
:10061B00278D268C25E47B107A27F9F8120331E419
:10062B007B0AFAF9F8120331EB2430F541E47BE84D
:10063B007A03F9F8AF28AE27AD26AC25120331E4C7
:10064B007B0AFAF9F8120331EB2430F543E47B64AF
:10065B00FAF9F8AF28AE27AD26AC25120331E47BAF
:10066B000AFAF9F8120331EB2430F544E47B0AFA69
:10067B00F9F8AF28AE27AD26AC25120331E47B0A7F
:10068B00FAF9F8120331EB2430F545E55A640260B0
:10069B00030207A878497C00FD7BFF7A0A79F712E1
:1006AB0004AE852428852327852226852125C3741E
:1006BB00FF9528FFE49527FEE49526FDE49525FCA0
:1006CB00E41201BCC004C005C006C007AF28AE27AA
:1006DB00AD26AC25E41201BCD003D002D001D00072
:1006EB0012011FC004C005C006C007AC08E412010C
:1006FB00C6D003D002D001D000120016E4FBFA7969
:10070B00FA78431200161201FA8F288E278D268C49
:10071B0025E47B107A27F9F8120331E47B0AFAF906
:10072B00F8120331EB2430F550E47BE87A03F9F847
:10073B00AF28AE27AD26AC25120331E47B0AFAF9BC
:10074B00F8120331EB2430F551E47B64FAF9F8AF7E
:10075B0028AE27AD26AC25120331E47B0AFAF9F853
:10076B00120331EB2430F553E47B0AFAF9F8AF2886
:10077B00AE27AD26AC25120331E47B0AFAF9F81249
:10078B000331EB2430F554E47B0AFAF9F8AF28AEC9
:0E079B0027AD26AC25120331EB2430F5552294
:1007A900E55A6003020873E55B702B7BFF7A0A79CF
:1007B90013FD7F01120CCA7F011204CBE4F5597FA6
:1007C900F47E01FDFCAB28AA27A926A825C312039C
:1007D900D14003120006E55BB401267A0A79231297
:1007E9000CC47F0A1204CBE4F5597F887E13FDFC03
:1007F900AB28AA27A926A825C31203D140031200B2
:1008090006E55BB402267A0A7933120CC47F6412B6
:1008190004CBE4F5597F507EC3FDFCAB28AA27A978
:1008290026A825C31203D14003120006E559640125
:1008390070267BFF7A0B7907FD7F02120CCA7BFFBA
:100849007A0A79437F02120CCA7F0A120D32C2A6B4
:10085900C2A7C2B0D2B180127B007A007929E4FD27
:100869007F02120CCA7F0A120D32E55A6401600335
:10087900020943E55B702B7BFF7A0A794FFD7F0103
:10088900120CCA7F641204CBE4F5597FF47E01FD92
:10089900FCAB28AA27A926A825C31203D140031215
:1008A9000006E55BB401287BFF7A0A7960120CC661
:1008B9007F0A1204CBE4F5597F887E13FDFCAB282F
:1008C900AA27A926A825C31203D14003120006E5C9
:1008D9005BB402287BFF7A0A7971120CC67F011278
:1008E90004CBE4F5597F507EC3FDFCAB28AA27A9A8
:1008F90026A825C31203D14003120006E559640155
:1009090070267BFF7A0B7907FD7F02120CCA7BFFE9
:100919007A0A79437F02120CCA7F01120D32C2A6EC
:10092900C2A7C2B0D2B180127B007A007939E4FD46
:100939007F02120CCA7F0A120D32E55A6402600363
:10094900020A12E55B702B7BFF7A0A7982FD7F012F
:10095900120CCA7F011204CBE4F5597FF47E01FD24
:10096900FCAB28AA27A926A825C31203D140031244
:100979000006E55BB401287BFF7A0A7993120CC65D
:100989007F0A1204CBE4F5597F887E13FDFCAB285E
:10099900AA27A926A825C31203D14003120006E5F8
:1009A9005BB402287BFF7A0A79A4120CC67F641211
:1009B90004CBE4F5597F507EC3FDFCAB28AA27A9D7
:1009C90026A825C31203D14003120006E559640184
:1009D90070257BFF7A0B7907FD7F02120CCA7BFF1A
:1009E9007A0A79437F02120CCA7F01120D32C2A61C
:1009F900C2A7C2B0D2B1227B007A007949E4FD7F57
:0A0A090002120CCA7F0A120D3222FD
:100D0000C2A5C2A3D2A5C2A57F01120D3230A42173
:100D1000D2A3AF90E48F28F527F526F5258F2485FB
:100D20002723852622852521C2A31207A9D2A5C281
:020D3000A522FA
:03000300020D509B
:100D5000C0E0C0D0055AE55AB40303755A00755B6C
:0B0D600000755900C2B1D0D0D0E032C5
:03001300020D8358
:100D8300C0E0C0D0055BE55BB40303755B00755938
:080D930000C2B1D0D0D0E03263
:100B1800120D6BC2A6C2A7C2B0C2B1C2B5C2B6C2DC
:100B2800B7D2AFD2AAD2A8D28AD2887BFF7A0A7962
:100B3800B5120CC67BFF7A0A79C67F02120CCA7FEF
:100B4800E8120D32E5597048E55A14600B1460102C
:100B580024027012C2B58002D2B5C2B6C2B78006EE
:100B6800C2B5D2B6C2B7E55B14600F146014240294
:100B78007016D2A6C2A7C2B0800EC2A6D2A7C2B0B3
:100B88008006C2A6C2A7D2B07F0A120D32120D008B
:100B980020B4B17F0A120D3220B4A930B14AE55A07
:100BA80014600B14601024027012C2B58002D2B512
:100BB800C2B6C2B78006C2B5D2B6C2B7E55B14608A
:100BC8000F14601424027016D2A6C2A7C2B0800EF9
:100BD800C2A6D2A7C2B08006C2A6C2A7D2B07F0A58
:100BE800120D32120D00C2B130B403020B4C80F862
:10001600EC4D6011E8497017ED33EC3304600DE4E4
:10002600FCFFFEFD22E933E8330470F80202661293
:10003600023158046009E4CC248150062850090294
:10004600027028400302026DC0E0EB4A7044B9809A
:1000560006D0E0FB02025CEF4E701CBD8008EBFF91
:10006600EAFEE9FD80EBE98DF0A4FEE5F00200FF73
:10007600E9CDF9EAFEEBFFEF89F0A4FCE5F0CE89C5
:10008600F0A42EFFE435F0CD89F0A42DFEE435F082
:100096008067EF4E7005BD80D780C3EF8BF0A4ACB0
:1000A600F0EE8BF0A42CFCE435F0F8EF8AF0A42CEB
:1000B600E5F038FCE433CB8DF0A42CFCE5F03BF8FE
:1000C600EE8AF0A42CFCE5F038F8E433CF89F0A4EE
:1000D6002CFCE5F038CF3400CE89F0A42FFFE5F0F4
:1000E6003EFEE433C98DF0A42EFEE5F039CD8AF04C
:1000F600A42FFFE5F03EFEE43DFD33D0E0FB5007C4
:100106000BBB000F020270EC2CFCEF33FFEE33FE4C
:06011600ED33FD0202487A
:10011C00020270EC5D046005E8590470030202668B
:10012C00120231580460F6EC4860F2EC7004FDFEEB
:10013C00FF22C860DB2481C85009C39860025006B6
:10014C0002026D9850CAF582E9294B4A7005AB82C0
:10015C0002025C75F0007C1A7880C3EF9BEE9AED7E
:10016C0099400DC3EF9BFFEE9AFEED99FDE842F02E
:10017C00DC23ACF0D0E0FFD0E0FED0E0FDAB822081
:10018C00E7101BEB60BAEC2CFCEF33FFEE33FEED0B
:10019C0033FD020248E803F830E705C0F075F000C3
:1001AC00EF2FFFEE33FEED33FD40B830E7C280AAEF
:1001BC0075F020800E75F010800575F0087D007EBE
:1001CC00007F003392D530D5031203C3EC334010BB
:1001DC00EF33FFEE33FEED33FDEC33FCD5F0ED22C7
:0E01EC00E5F0247EA2D513CC92E7CDCEFF2203
:1001FA00EDD2E7CD33EC3392D524814006E4FFFEFD
:10020A00FDFC22FCE4CFCECDCC24E0501174FF805B
:10021A00EDC3CC13CCCD13CDCE13CECF13CF0470F8
:07022A00F030D5DE0203C332
:10023100E9D2E7C933E833F892D5EDD2E7CD33EC13
:0702410033FC5002B2D5228C
:10024800EC30E7100FBF000C0EBE00080DBD000417
:100258000BEB6014A2D5EB13FCED92E7FD2274FFC3
:10026800FCFDFEFF22E480F8A2D574FF13FC7D801C
:03027800E480EF30
:03000000020BF8F8
:0C0BF800787FE4F6D8FD75815B020C3FAD
:10027B00BB010689828A83E0225002E722BBFE0281
:09028B00E32289828A83E49322B4
:10029400EF8DF0A4A8F0CF8CF0A428CE8DF0A42E7E
:0202A400FE2238
:1002A600E88FF0A4CC8BF0A42CFCE98EF0A42CFCF7
:1002B6008AF0EDA42CFCEA8EF0A4CDA8F08BF0A475
:1002C6002DCC3825F0FDE98FF0A42CCD35F0FCEBD4
:1002D6008EF0A4FEA9F0EB8FF0A4CFC5F02ECD3999
:0F02E600FEE43CFCEAA42DCE35F0FDE43CFC2206
:1002F50075F008758200EF2FFFEE33FECD33CDCCC0
:1003050033CCC58233C5829BED9AEC99E582984042
:100315000CF582EE9BFEED9AFDEC99FC0FD5F0D61F
:10032500E4CEFBE4CDFAE4CCF9A88222B800C1B949
:100335000059BA002DEC8BF084CFCECDFCE5F0CB87
:10034500F97818EF2FFFEE33FEED33FDEC33FCEBC0
:1003550033FB10D703994004EB99FB0FD8E5E4F97B
:10036500FA227818EF2FFFEE33FEED33FDEC33FC68
:10037500C933C910D7059BE99A4007EC9BFCE99A5C
:10038500F90FD8E0E4C9FAE4CCFB2275F010EF2FA1
:10039500FFEE33FEED33FDCC33CCC833C810D707A1
:1003A5009BEC9AE899400AED9BFDEC9AFCE899F8DC
:0E03B5000FD5F0DAE4CDFBE4CCFAE4C8F9226F
:0E03C300C3E49FFFE49EFEE49DFDE49CFC224B
:1003D100EB9FF5F0EA9E42F0E99D42F0E89C45F082
:0103E10022F9
:1003E200E709F60870FA8046E709F20870FA803EDB
:1003F20088828C83E709F0A370FA807EE309F6080D
:1004020070FA8076E309F20870FA806E88828C8333
:10041200E309F0A370FA806289828A83E0A3F60876
:1004220070FA805689828A83E0A3F20870FA804AC1
:1004320080D280FA80C680D4806580F280318010BC
:1004420080A680EA809A80A880DA80E280CA803121
:1004520089828A83ECFAE493A3C8C582C8CCC58397
:10046200CCF0A3C8C582C8CCC583CC70E9800D8905
:10047200828A83E493A3F60870F9ECFAA9F0EDFB03
:100482002289828A83ECFAE0A3C8C582C8CCC583DC
:10049200CCF0A3C8C582C8CCC583CC70EA80DD8904
:1004A200828A83E493A3F20870F980CE88F0ED2467
:1004B20002B4040050C4F582EB2402B4040050BA22
:0904C200232345822390043273C8
:100C0400020B18E493A3F8E493A34003F68001F2E3
:100C140008DFF48029E493A3F85407240CC8C333F1
:100C2400C4540F4420C8834004F456800146F6DFC0
:100C3400E4800B0102040810204080900C84E47EC0
:100C4400019360BCA3FF543F30E509541FFEE493B5
:100C5400A360010ECF54C025E060A840B8E493A37C
:100C6400FAE493A3F8E493A3C8C582C8CAC583CAA7
:100C7400F0A3C8C582C8CAC583CADFE9DEE780BE5F
:010CC3000030
:00000001FF
