:10079F002A00496E7075742050617373776F72649D
:1007AF003A0050617373776F7264204572726F7283
:1007BF002100556E636C6F636B20537563636573B4
:1007CF007321004F6C642050617373776F72643ABA
:1007DF00004E65772050617373776F72643A0050E3
:1007EF00617373776F7264206469676974730073E0
:1007FF00686F756C64203E35004368616E676520D5
:10080F0053756363657373210020202020202020FF
:0A081F0020202020202020202000AF
:1008290011643131313131313131000000000000C2
:1008390000000011533131313131313131000000C3
:10084900000000000000112100000000000000006D
:10085900000000000000000000113200000000004C
:0C08690000000000000000000000000083
:0708B600250AF8E4F67F0AB1
:1008BD00AE071FEE6017E4FCFDC3ED94FAEC940057
:0D08CD0050EE000000000DBD00010C80EC9D
:0108DA0022FB
:10092F007580FFC2A0D2A1D2A2AF80C2A2EF339234
:03093F0000A20013
:010942002292
:10094300AE0712092F40FBD2A0C2A18E80D2A2C251
:02095300A222DE
:0708FE007FE81208BD7F0135
:10090500AE0712092F40FBC2A0C2A18E80D2A2C29F
:02091500A2221C
:10091700C2A0C2A27F381209057F0C1209057F0603
:080927001209057F0102090518
:0A0876007A0779A17BFFE4FD7F0102
:060880008B0D8A0E890FAA
:10088600EDBF01052480FC800324C0FCAF041209DF
:1008960005AB0DAA0EA90F12037A6013050FE50F1B
:0F08A6007002050E14F912037AFF12094380E263
:0108B5002220
:100643007590F085900DE50D64F060F47F1E12083F
:10065300BD85900DE50D64F060E67590FE85900D07
:10066300E50D54F064F0601EE50D2482601524C08E
:10067300600E24E0600724F0700C7F30227F31226B
:100683007F32227F33227590FD85900DE50D54F066
:1006930064F0601EE50D2483601524C0600E24E021
:1006A300600724F0700C7F34227F35227F36227F4F
:1006B30037227590FB85900DE50D54F064F0601EB4
:1006C300E50D2485601524C0600E24E0600724F046
:1006D300700C7F38227F39227F61227F62227590DE
:1006E300F785900DE50D54F064F07003020643E5C1
:1006F3000D2489601824C0601124E0600A24F0608E
:0F070300030206437F63227F64227F65227F66A5
:0107120022C4
:0208DB008F0D7F
:1008DD007E007F107D007B007A007943120617E4BD
:1008ED00FFEFC3950D500974432FF8762A0F80F151
:0108FD0022D8
:10000300750901E4F50AF50BF50CC2A312091712E1
:100013000876E4F50A1206438F08E508C3943040D6
:1000230051E508D39439504AE50AC394105043E587
:100033000C70077421250AF8A608E50CB4010774AF
:1000430032250AF8A608E50CB402077464250AF8F9
:10005300A608E50B70087BFF7A07799F80067B0073
:100063007A007908AD0A7F021208807F0A1208BD60
:10007300050AE508646160030201E9E50AC3940621
:1000830050527F011209057A0779EE12087A7BFF35
:100093007A0779FE7D037F021208807F64120900CC
:1000A300120876E4F50CF50A750901FE7F11FB7A57
:1000B3000079211206177E007F117D007B007A00F4
:1000C300793212061778647C007D007B007A007910
:1000D300531205FAE50AC3940650030201E9E50C3D
:1000E300705A7422250AF8E4F678217C00FDFB7A25
:1000F300007964120511EF7F0170171209057BFF68
:100103007A0779C112087CD2A37FE81208BDC2A383
:1001130080111209057BFF7A0779B112087C7FE809
:100123001208BD7F01120905120876E4F50A750964
:1001330001FE7F11FB7A007921120617E50C640298
:1001430070287465250AF8E4F67F011209057BFF20
:100153007A08790812087C1208FE1208767F0A12C0
:1001630008BDE4F50CF50A750901E50C6401707628
:100173007433250AF8E4F678327C00FDFB7A0079C3
:1001830064120511EF7F0170341209057BFF7A07B2
:1001930079E012087C7FE81208BDE4F50A750901CD
:1001A300750C02FE7F11FDFB7A0079321206177E71
:1001B300007F117D007B007A007964802612090597
:1001C3007BFF7A0779B112087C1208FE7BFF7A075E
:1001D30079D212087CE4F50A750901FE7F11FB7AD6
:1001E300007932120617E50864626003020280E5B3
:1001F3000AD394005003020280150AE50C700574BB
:10020300211208B6E50CB4010574321208B6E50CE8
:10021300B4020574641208B6E50B6401703E7BFFFB
:100223007A087918FD7F02120880E50C700AFB7AC0
:100233000079217F02120880E50CB4010D7B007A5E
:10024300007932E4FD7F02120880E50CB4020D7BD5
:10025300007A007964E4FD7F02120880E50B701DCB
:10026300AF0A1208DB7BFF7A087918E4FD7F0212DC
:1002730008807B007A0079437F02120880E50864D6
:1002830063707BE50930E047E50C7010FB7A007979
:1002930021FD7F021208807F0A1208BDE50CB4011C
:1002A300127B007A007932E4FD7F021208807F0A14
:1002B3001208BDE50CB402127B007A007964E4FDF8
:1002C3007F021208807F0A1208BD750B018025AFDB
:1002D3000A1208DB7BFF7A087918E4FD7F02120813
:1002E300807B007A0079437F021208807F0A12081C
:1002F300BDE4F50B0509E509B40A03E4F509E508CE
:1003030064647050E50C700CFE7F11FDFB7A00797C
:1003130021120617E50CB4010F7E007F117D007BCF
:10032300007A007932120617E50CB4020F7E007FC3
:10033300117D007B007A0079641206177BFF7A082F
:100343007918E4FD7F021208807F0A1208BDE4F5E4
:100353000A750901E50864656003020018750C015C
:100363007F011209057BFF7A0779D212087CE4F535
:070373000A750901020018E0
:03000000020713E1
:0C071300787FE4F6D8FD75817402075A67
:10037A00BB010689828A83E0225002E722BBFE0281
:09038A00E32289828A83E49322B4
:10039300E3F5F009E208B5F06D606B80F3E3F5F087
:1003A30009E608B5F060605E80F387F009E608B5FA
:1003B300F054605280F487F009E208B5F0486046D3
:1003C30080F488828C8387F009E0A3B5F038603627
:1003D30080F488828C8387F009E493A3B5F02760C7
:1003E3002580F388828C83E3F5F009E0A3B5F0164A
:1003F300601480F388828C83E3F5F009E493A3B55A
:10040300F004600280F20204BE808580E7808E8063
:10041300D2803C8015806C807E809B80B5808B80F1
:10042300A1804F8070803A0204CA89828A83ECFAE1
:10043300E493F5F0A3C8C582C8CCC583CCE493A3E9
:10044300C8C582C8CCC583CCB5F070606E80E18925
:10045300828A83E493F5F0A3E208B5F05E605C80E2
:10046300F289828A83E0F5F0A3E608B5F04D604B8C
:1004730080F389828A83E0F5F0A3E208B5F03C605B
:100483003A80F389828A83E493F5F0A3E608B5F012
:100493002A602880F2805389828A83ECFAE493F5F8
:1004A300F0A3C8C582C8CCC583CCE0A3C8C582C8A5
:1004B300CCC583CCB5F004600280E27FFFB5F002C7
:1004C3000F2240027F012289828A83ECFAE0F5F051
:1004D300A3C8C582C8CCC583CCE0A3C8C582C8CC99
:1004E300C583CCB5F0D560D380E389828A83ECFAE7
:1004F300E0F5F0A3C8C582C8CCC583CCE493A3C8F8
:10050300C582C8CCC583CCB5F0B160AF80E288F0BA
:10051300ED2402B4040050A3F582EB2402B40400DA
:0B0523005099232345822390040C73A1
:10052E00E709F60870FA8046E709F20870FA803E8D
:10053E0088828C83E709F0A370FA807EE309F608BF
:10054E0070FA8076E309F20870FA806E88828C83E6
:10055E00E309F0A370FA806289828A83E0A3F60829
:10056E0070FA805689828A83E0A3F20870FA804A74
:10057E0080D280FA80C680D4806580F2803180106F
:10058E0080A680EA809A80A880DA80E280CA8031D4
:10059E0089828A83ECFAE493A3C8C582C8CCC5834A
:1005AE00CCF0A3C8C582C8CCC583CC70E9800D89B8
:1005BE00828A83E493A3F60870F9ECFAA9F0EDFBB6
:1005CE002289828A83ECFAE0A3C8C582C8CCC5838F
:1005DE00CCF0A3C8C582C8CCC583CC70EA80DD89B7
:1005EE00828A83E493A3F20870F980CE88F0ED241A
:1005FE0002B4040050C4F582EB2402B4040050BAD5
:09060E00232345822390057E732D
:10061700EF4E6012EF60010EEDBB010B89828A83FA
:10062700F0A3DFFCDEFA2289F05007F709DFFCA907
:0C063700F022BBFEFCF309DFFCA9F0225E
:10071F00020003E493A3F8E493A34003F68001F2ED
:10072F0008DFF48029E493A3F85407240CC8C333DB
:10073F00C4540F4420C8834004F456800146F6DFAA
:10074F00E4800B0102040810204080900829E47E09
:10075F00019360BCA3FF543F30E509541FFEE4939F
:10076F00A360010ECF54C025E060A840B8E493A366
:10077F00FAE493A3F8E493A3C8C582C8CAC583CA91
:10078F00F0A3C8C582C8CAC583CADFE9DEE780BE49
:010875000082
:00000001FF
