:0A0006003F065B4F666D7D077F6FBC
:1002E700010800010900010A00010B00010C0001CF
:1002F7000D000212000002160000020E000002109C
:06030700000002140000DA
:10033400E4FDFC0DBD00010CED64A54C70F5DFF08F
:010344002296
:030013000202B92D
:1002B900C0E0E51520E00AC28E75100075110180B5
:1002C90008D28E7510007511000515E51570020527
:0E02D90014640A45147004F514F515D0E032D3
:0300030002030EE7
:10030E00C0E0C0D075D000C006C28E0517E517AE8E
:10031E0016700205161464024E7004F516F517D009
:06032E0006D0D0D0E03241
:03001B0002017A65
:10017A00C0E0C0D075D000C0070513E513700205B2
:10018A001264A07004E512640F7055AF0D050DEFEF
:10019A0064097046F50DAF0C050CEF6405703BF56C
:1001AA000CAF0B050BEF64097030F50BAF0A050AAB
:1001BA00EF64057025F50AE5086402600FAF0905CA
:1001CA0009EFB409157509000508800EAF0905097C
:1001DA00EFB403067508007509007512007513005F
:0701EA00D007D0D0D0E032B5
:1001F10053A0C0E50890000693F590D2A07F0112AC
:10020100033453A0C0E50993F590D297D2A17F02A0
:1002110012033453A0C0E50A93F590D2A27F0112D4
:10022100033453A0C0E50B93F590D297D2A37F017D
:1002310012033453A0C0E50C93F590D2A47F0212AF
:10024100033453A0C0E50D93F590D2A57F011203AD
:0802510034E4F59053A0C02233
:10001E00E50F6401450E7064E51745167022E5087C
:10002E006402600FAF090509EFB40914E4F5090580
:10003E0008800DAF090509EFB40305E4F508F509CD
:10004E00E517640145167016AF0B050BEFB4090EDC
:10005E00E4F50BAF0A050AEFB40503E4F50AE5175C
:10006E00640245167016AF0D050DEFB4090EE4F5DA
:10007E000DAF0C050CEFB40503E4F50CE50F6402AF
:10008E00450E705BE51745167017AF091509EF7031
:10009E0010750909AF081508EF7006750802750985
:1000AE0003E517640145167017AF0B150BEF7010B3
:1000BE00750B09AF0A150AEF7006750A05750B095F
:1000CE00E517640245167017AF0D150DEF7010751C
:1000DE000D09AF0C150CEF7006750C05750D092288
:10025900758920758D06758B06D2AFD2AAD2A8D220
:100269008AD288D2ABD28EE51164014510703C2048
:10027900A61B7F1E12033420A613750E00750F01ED
:1002890012001E800320A6051201F180F820A71B89
:100299007F1E12033420A713750E00750F0212007A
:1002A9001E800320A7051201F180F81201F180B721
:030000000200EE0D
:0C00EE00787FE4F6D8FD7581170201351B
:1000FA00020259E493A3F8E493A34003F68001F2C1
:10010A0008DFF48029E493A3F85407240CC8C33306
:10011A00C4540F4420C8834004F456800146F6DFD5
:10012A00E4800B01020408102040809002E7E47E7C
:10013A00019360BCA3FF543F30E509541FFEE493CA
:10014A00A360010ECF54C025E060A840B8E493A391
:10015A00FAE493A3F8E493A3C8C582C8CAC583CABC
:10016A00F0A3C8C582C8CAC583CADFE9DEE780BE74
:01030D0000EF
:00000001FF
