:0A0335003F065B4F666D7D077F6F8A
:10030E00010800010900010A00010B00010C0001A7
:10031E000D000212000002160000020E0000021074
:06032E00000102140000B2
:10000300E4FDFC0DBD00010CED64A54C70F5DFF0C3
:0100130022CA
:03001B0002022FAF
:10022F00C0E0C0D075D000C0070513E513700205FC
:10023F001264A07004E512640F7055AF0D050DEF39
:10024F0064097046F50DAF0C050CEF6405703BF5B6
:10025F000CAF0B050BEF64097030F50BAF0A050AF5
:10026F00EF64057025F50AE5086402600FAF090514
:10027F0009EFB409157509000508800EAF090509C6
:10028F00EFB40306750800750900751200751300A9
:07029F00D007D0D0D0E032FF
:1002A60053A0C0E50890033593F590D2A07F0112C4
:1002B600000353A0C0E50993F590D297D2A17F021F
:1002C60012000353A0C0E50A93F590D2A27F011253
:1002D600000353A0C0E50B93F590D297D2A37F01FC
:1002E60012000353A0C0E50C93F590D2A47F02122E
:1002F600000353A0C0E50D93F590D2A57F0112002F
:0803060003E4F59053A0C022AE
:10001E00E50F6401450E7064E51745167022E5087C
:10002E006402600FAF090509EFB40914E4F5090580
:10003E0008800DAF090509EFB40305E4F508F509CD
:10004E00E517640145167016AF0B050BEFB4090EDC
:10005E00E4F50BAF0A050AEFB40503E4F50AE5175C
:10006E00640245167016AF0D050DEFB4090EE4F5DA
:10007E000DAF0C050CEFB40503E4F50CE50F6402AF
:10008E00450E705BE51745167017AF091509EF7031
:10009E0010750909AF081508EF7006750802750985
:1000AE0003E517640145167017AF0B150BEF7010B3
:1000BE00750B09AF0A150AEF7006750A05750B095F
:1000CE00E517640245167017AF0D150DEF7010751C
:1000DE000D09AF0C150CEF7006750C05750D092288
:1000EE00758920758D06758B06D2AFD2AB20A638DA
:1000FE007F1412000320A630E51520E009D28EE40D
:10010E00F510F5118008C28E7510007511010515D8
:10011E00E51570020514640A45147004F514F515FE
:10012E0020A6051202A680F820A7247F1412000331
:10013E0020A71C0517E517AE1670020516146402EB
:10014E004E7004F516F51720A7051202A680F8E5E5
:10015E001164014510703820B0197F14120003206D
:10016E00B011750E00750F0112001E20B00512029F
:10017E00A680F820B1197F1412000320B111750E5C
:10018E0000750F0212001E20B1051202A680F81291
:05019E0002A60200FBB7
:030000000201A357
:0C01A300787FE4F6D8FD7581170201EAB0
:1001AF000200EEE493A3F8E493A34003F68001F278
:1001BF0008DFF48029E493A3F85407240CC8C33351
:1001CF00C4540F4420C8834004F456800146F6DF20
:1001DF00E4800B010204081020408090030EE47E9F
:1001EF00019360BCA3FF543F30E509541FFEE49315
:1001FF00A360010ECF54C025E060A840B8E493A3DC
:10020F00FAE493A3F8E493A3C8C582C8CAC583CA06
:10021F00F0A3C8C582C8CAC583CADFE9DEE780BEBE
:0103340000C8
:00000001FF
