:10013E0001020408102040808040201008040201B3
:06014E00030C30C055AAAD
:03000300010800F1
:09011C00E50993F5907F0A7E00CD
:10012500E4FDFC0DBD00010CBC17F8BD70F5EF1F1B
:08013500AC0670011E4C70E8DD
:01013D00229F
:0300130002015493
:10015400C0E0C0D00508E508B40403750800D0D099
:03016400D0E032B6
:0600A200D2AFD2AAD28AFF
:1000A800E5087015F50990013E12011CE508700974
:1000B8000509E509C3940840EDE508B40117E4F51E
:1000C8000990014612011CE508B401090509E50972
:1000D800C3940840ECE508B40219E4F509E5099071
:1000E800014E12011EE508B402090509E509C39489
:1000F8000440EAE508640370A7F509E509C394021A
:10010800509EE50990015212011EE50864037090A3
:04011800050980E76E
:03000000020016E5
:0C001600787FE4F6D8FD75810902005DDA
:100022000200A2E493A3F8E493A34003F68001F252
:1000320008DFF48029E493A3F85407240CC8C333DF
:10004200C4540F4420C8834004F456800146F6DFAE
:10005200E4800B0102040810204080900003E47E3B
:10006200019360BCA3FF543F30E509541FFEE493A3
:10007200A360010ECF54C025E060A840B8E493A36A
:10008200FAE493A3F8E493A3C8C582C8CAC583CA95
:10009200F0A3C8C582C8CAC583CADFE9DEE780BE4D
:0100060000F9
:00000001FF
