:10051900010E00020C0000020F000004113F000050
:0105290000D1
:03001B000204C319
:1004C300C0E0C0D0050DE50D7002050CB50B09E5C4
:1004D3000CB50A04C2908012E50DB5090DE50CB503
:0F04E3000808750C00750D00D290D0D0D0E03213
:030013000203EEF7
:1003EE00C0E0C0F0C083C082C0D075D000C000C0D5
:1003FE0001C002C003C004C005C006C007AF14AEE2
:10040E0013AD12AC117BCD7ACC79CC783D12002590
:10041E008F148E138D128C11E4FFFE7D807C3FAB0A
:10042E0014AA13A912A81112021C700C7514CD7502
:10043E0013CC7512CC75113DD007D006D005D00463
:10044E00D003D002D001D000D0D0D082D083D0F053
:03045E00D0E032B9
:030003000204F202
:1004F200C0E0C0D075140075130075120075113F6D
:10050200050EE50EB40403750E00750C00750D00A2
:07051200D290D0D0D0E032FE
:10046100758920758DCE758BCED2AFD2AAD2A8D286
:100471008AD288D2ABD28ED290E50E14601214606B
:100481001714601C2403701E75080075091480166A
:100491007508007509C8800E7508077509D08006B2
:1004A10075084E750920AC08AD09E412029AAB1427
:1004B100AA13A912A8111201161202D38E0A8F0BC8
:0204C10080B702
:10001E0002033FE86480F8E933E83360110460F0CE
:10002E00ED33EC337009E8FCE9FDEAFEEBFF220448
:10003E0060DED3EB9FEA9EE99DE8C2E78CF0C2F743
:10004E0095F0400CE8CCF8E9CDF9EACEFAEBCFFB0F
:10005E0012030A85D0F05804700320D5B3E804705B
:10006E00075002B2D502034992D5EC0460F7E4CCF6
:10007E00C0E0C398F8603B94186008400DD0E0FBD8
:10008E00020321E4FBFAC9FC8028E830E406E4C947
:10009E00FBE4CAFCE830E305E4C9CACBFCE854072C
:1000AE006010F8C3E913F9EA13FAEB13FBEC13FC37
:1000BE00D8F130F52FC3E49CFCEF9BFFEE9AFEEDDA
:1000CE0099FDD0E0FBEF4E4D4C701222DB03020384
:1000DE0046EC2CFCEF33FFEE33FEED33FDED30E757
:1000EE00EB020321EF2BFFEE3AFEED39FDD0E0FBE4
:1000FE0050130BBB0003020349ED13FDEE13FEEF8D
:08010E0013FFEC13FC020321B6
:10011600EC4D6011E8497017ED33EC3304600DE4E3
:10012600FCFFFEFD22E933E8330470F802033F12B8
:10013600030A58046009E4CC2481500628500902B9
:100146000349284003020346C0E0EB4A7044B980E5
:1001560006D0E0FB020335EF4E701CBD8008EBFFB6
:10016600EAFEE9FD80EBE98DF0A4FEE5F00201FF71
:10017600E9CDF9EAFEEBFFEF89F0A4FCE5F0CE89C4
:10018600F0A42EFFE435F0CD89F0A42DFEE435F081
:100196008067EF4E7005BD80D780C3EF8BF0A4ACAF
:1001A600F0EE8BF0A42CFCE435F0F8EF8AF0A42CEA
:1001B600E5F038FCE433CB8DF0A42CFCE5F03BF8FD
:1001C600EE8AF0A42CFCE5F038F8E433CF89F0A4ED
:1001D6002CFCE5F038CF3400CE89F0A42FFFE5F0F3
:1001E6003EFEE433C98DF0A42EFEE5F039CD8AF04B
:1001F600A42FFFE5F03EFEE43DFD33D0E0FB5007C3
:100206000BBB000F020349EC2CFCEF33FFEE33FE71
:06021600ED33FD0203219F
:10021C0074F8CC6480CCC86480C8F58204604FC389
:10022C00EB9FF5F0EA9E42F0E99D42F0E89C45F028
:10023C00603C501DE5825FFFE582D313CB5BCBF4B2
:10024C002B5582FB50280ABA002409B900200880DB
:10025C001DE5825BFBE582D313CF5FCFF4C3132F75
:10026C005582FF50090EBE00050DBD00010CC3EBFD
:10027C009FF5F0EA9E42F0E99D42F0E89C45F06063
:09028C0007CC4820E701B3EC2285
:1002950075F020800E75F010800575F0087D007EE4
:1002A500007F003392D530D503120354EC33401050
:1002B500EF33FFEE33FEED33FDEC33FCD5F0ED22ED
:0E02C500E5F0247EA2D513CC92E7CDCEFF2229
:1002D300EDD2E7CD33EC3392D524814006E4FFFE23
:1002E300FDFC22FCE4CFCECDCC24E0501174FF8082
:1002F300EDC3CC13CCCD13CDCE13CECF13CF04701F
:07030300F030D5DE020354C7
:10030A00E9D2E7C933E833F892D5EDD2E7CD33EC39
:07031A0033FC5002B2D522B2
:10032100EC30E7100FBF000C0EBE00080DBD00043D
:100331000BEB6014A2D5EB13FCED92E7FD2274FFE9
:10034100FCFDFEFF22E480F8A2D574FF13FC7D8042
:03035100E480EF56
:0300000002036296
:0C036200787FE4F6D8FD7581140203A931
:0E035400C3E49FFFE49EFEE49DFDE49CFC22BA
:10036E00020461E493A3F8E493A34003F68001F240
:10037E0008DFF48029E493A3F85407240CC8C33390
:10038E00C4540F4420C8834004F456800146F6DF5F
:10039E00E4800B0102040810204080900519E47ED1
:1003AE00019360BCA3FF543F30E509541FFEE49354
:1003BE00A360010ECF54C025E060A840B8E493A31B
:1003CE00FAE493A3F8E493A3C8C582C8CAC583CA46
:1003DE00F0A3C8C582C8CAC583CADFE9DEE780BEFE
:01052A0000D0
:00000001FF
