:0900C800010A000108FA0109AA6D
:10000300758920758D10758B10D2AFD2ABD28ED27D
:03001300A080FECC
:03001B000200AA36
:1000AA00C0E0C0D0050AE50AB50904C2A0800AE585
:0E00BA000AB50805750A00D2A0D0D0D0E032F9
:0300000002001EDD
:0C001E00787FE4F6D8FD75810A020065C9
:10002A00020003E493A3F8E493A34003F68001F2E9
:10003A0008DFF48029E493A3F85407240CC8C333D7
:10004A00C4540F4420C8834004F456800146F6DFA6
:10005A00E4800B01020408102040809000C8E47E6E
:10006A00019360BCA3FF543F30E509541FFEE4939B
:10007A00A360010ECF54C025E060A840B8E493A362
:10008A00FAE493A3F8E493A3C8C582C8CAC583CA8D
:10009A00F0A3C8C582C8CAC583CADFE9DEE780BE45
:0100D100002E
:00000001FF
