:0A0241003F065B4F666D7D077F6F7F
:040213007F027E00E8
:10021700EF1FAA0670011E4A6013E4FCFDC3ED94AC
:0D02270078EC940050EA0DBD00010C80F051
:0102340022A7
:10012000E47B0AFAF9F8AF0BAE0AAD09AC0812008D
:100130008EAC00AD01AE02AF038F0F8E0E8D0D8C15
:100140000C53A0F8E50F90024193F590D2A2120251
:1001500013E47B0AFAF9F8AF0BAE0AAD09AC08124A
:10016000008EE47B0AFAF9F812008EAC00AD01AE05
:1001700002AF038F0F8E0E8D0D8C0C53A0F8E50F80
:1001800090024193F590D2A1120213E47B64FAF934
:10019000F8AF0BAE0AAD09AC0812008EE47B0AFA88
:1001A000F9F812008EAC00AD01AE02AF038F0F8ED6
:1001B0000E8D0D8C0C53A0F8E50F90024193F59035
:0E01C000D297D2A0120213E4F59053A0F822B9
:1001CE00C2A5C2A3D2A5C2A530A4FDD2A3AF80E41E
:1001DE008F0BF50AF509F5087FF47E01FDFCAB0BDC
:1001EE00AA0AA909A808120003E47BFFFAF9F8127B
:1001FE00008E8F0B8E0A8D098C08C2A3120120D29D
:05020E00A5C2A580C39C
:03000000020235C4
:0C023500787FE4F6D8FD75810F0201CE41
:10000300E88FF0A4CC8BF0A42CFCE98EF0A42CFC9C
:100013008AF0EDA42CFCEA8EF0A4CDA8F08BF0A41A
:100023002DCC3825F0FDE98FF0A42CCD35F0FCEB79
:100033008EF0A4FEA9F0EB8FF0A4CFC5F02ECD393E
:0F004300FEE43CFCEAA42DCE35F0FDE43CFC22AB
:1000520075F008758200EF2FFFEE33FECD33CDCC65
:1000620033CCC58233C5829BED9AEC99E5829840E8
:100072000CF582EE9BFEED9AFDEC99FC0FD5F0D6C5
:10008200E4CEFBE4CDFAE4CCF9A88222B800C1B9EF
:100092000059BA002DEC8BF084CFCECDFCE5F0CB2D
:1000A200F97818EF2FFFEE33FEED33FDEC33FCEB66
:1000B20033FB10D703994004EB99FB0FD8E5E4F921
:1000C200FA227818EF2FFFEE33FEED33FDEC33FC0E
:1000D200C933C910D7059BE99A4007EC9BFCE99A02
:1000E200F90FD8E0E4C9FAE4CCFB2275F010EF2F47
:1000F200FFEE33FEED33FDCC33CCC833C810D70747
:100102009BEC9AE899400AED9BFDEC9AFCE899F881
:0E0112000FD5F0DAE4CDFBE4CCFAE4C8F92214
:00000001FF
