:0400DA000208000018
:03001B000200AA36
:1000AA00C0E0C0D00509E50970020508D394FFE550
:1000BA000894005004059080021590E509B4FE0BDF
:1000CA00E508B40106750800750900D0D0D0E03201
:10000300758920758D67758B67D2AFD2ABD28EE4BD
:04001300F59080FEE6
:0300000002001EDD
:0C001E00787FE4F6D8FD758109020065CA
:10002A00020003E493A3F8E493A34003F68001F2E9
:10003A0008DFF48029E493A3F85407240CC8C333D7
:10004A00C4540F4420C8834004F456800146F6DFA6
:10005A00E4800B01020408102040809000DAE47E5C
:10006A00019360BCA3FF543F30E509541FFEE4939B
:10007A00A360010ECF54C025E060A840B8E493A362
:10008A00FAE493A3F8E493A3C8C582C8CAC583CA8D
:10009A00F0A3C8C582C8CAC583CADFE9DEE780BE45
:0100DE000021
:00000001FF
