:0400DD000208000015
:03001B000200AA36
:1000AA00C0E0C0D00509E50970020508D39480E5CF
:1000BA000894005004059080021590E509B47E0E5C
:1000CA00E508B4010975080075090075907FD0D05C
:0300DA00D0E03241
:10000300758920758D34758B34D2AFD2ABD28E7592
:04001300907F80FE5C
:0300000002001EDD
:0C001E00787FE4F6D8FD758109020065CA
:10002A00020003E493A3F8E493A34003F68001F2E9
:10003A0008DFF48029E493A3F85407240CC8C333D7
:10004A00C4540F4420C8834004F456800146F6DFA6
:10005A00E4800B01020408102040809000DDE47E59
:10006A00019360BCA3FF543F30E509541FFEE4939B
:10007A00A360010ECF54C025E060A840B8E493A362
:10008A00FAE493A3F8E493A3C8C582C8CAC583CA8D
:10009A00F0A3C8C582C8CAC583CADFE9DEE780BE45
:0100E100001E
:00000001FF
