:0A01C7003F065B4F666D7D077F6FFA
:10000300010800010900010A00010B00020C0000B5
:04001300020E0000D9
:1001B600E4FDFC0DBD00010CED64A54C70F5DFF00F
:0101C6002216
:03001B0002010ED1
:10010E00C0E0C0D075D000C007050DE50D7002052A
:10011E000C64A07004E50C640F703EAF0B050BEF82
:10012E006409702FF50BAF0A050AEFB40525750AA1
:10013E0000750B00AF090509EFB40917750900AF7B
:10014E00080508EFB4050C750800750900750A005E
:10015E00750B00750C00750D00D007D0D0D0E032B5
:10016E0053A0F0E5089001C793F590D2A07F02123C
:10017E0001B653A0F0E50993F590D297D2A17F0274
:10018E001201B653A0F0E50A93F590D2A27F0212A7
:10019E0001B653A0F0E50B93F590D2A37F021201A6
:0801AE00B6E4F59053A0F02225
:1000AA00758920758D06758B06D2AFD2AB20A42D2B
:1000BA007F1E1201B620A425E50F20E004D28E800F
:1000CA0002C28E050FE50F7002050E640A450E7016
:1000DA0004F50EF50F20A40512016E80F820A51F65
:1000EA007F1E1201B620A517E4F508F509F50AF5F1
:1000FA000BC28EF50EF50F20A50512016E80F812BF
:04010A00016E80A959
:0300000002001EDD
:0C001E00787FE4F6D8FD75810F020065C4
:10002A000200AAE493A3F8E493A34003F68001F242
:10003A0008DFF48029E493A3F85407240CC8C333D7
:10004A00C4540F4420C8834004F456800146F6DFA6
:10005A00E4800B0102040810204080900003E47E33
:10006A00019360BCA3FF543F30E509541FFEE4939B
:10007A00A360010ECF54C025E060A840B8E493A362
:10008A00FAE493A3F8E493A3C8C582C8CAC583CA8D
:10009A00F0A3C8C582C8CAC583CADFE9DEE780BE45
:0100170000E8
:00000001FF
