:0A016C003F065B4F666D7D077F6F55
:0C015F00010802010900010A01010B095E
:10014E00E4FDFC0DBD00010CED64A54C70F5DFF077
:01015E00227E
:1001080053A0F0E50890016C93F590D2A07F0212FD
:10011800014E53A0F0E50993F590D2A17F02120198
:100128004E53A0F0E50A93F590D2A27F0212014E39
:1001380053A0F0E50B93F590D2A37F0212014EE491
:06014800F59053A0FC221B
:10008F0020A41A7F1E12014E20A4120508E508B401
:10009F000A03E4F50820A40512010880F820A51A28
:1000AF007F1E12014E20A5120509E509B40A03E4CB
:1000BF00F50920A50512010880F820A61A7F1E1247
:1000CF00014E20A612050AE50AB40A03E4F50A2038
:1000DF00A60512010880F820A71A7F1E12014E20D4
:1000EF00A712050BE50BB40A03E4F50B20A70512C5
:0900FF00010880F8120108808755
:03000000020003F8
:0C000300787FE4F6D8FD75810B02004AFE
:10000F0002008FE493A3F8E493A34003F68001F278
:10001F0008DFF48029E493A3F85407240CC8C333F2
:10002F00C4540F4420C8834004F456800146F6DFC1
:10003F00E4800B010204081020408090015FE47EF1
:10004F00019360BCA3FF543F30E509541FFEE493B6
:10005F00A360010ECF54C025E060A840B8E493A37D
:10006F00FAE493A3F8E493A3C8C582C8CAC583CAA8
:10007F00F0A3C8C582C8CAC583CADFE9DEE780BE60
:01016B000093
:00000001FF
